:1008000071EF04F0FF00FF004582FACF0DF0FBCF3F
:100810000EF0E9CF0FF0EACF10F0E1CF11F0E2CF08
:1008200012F0D9CF13F0DACF14F0F3CF15F0F4CFE4
:1008300016F0F6CF17F0F7CF18F0F8CF19F0F5CF84
:100840001AF0F2BAF2A403D0D2EC27F02CD0F2B80E
:10085000F2A206D0F29281B026D0BCEC28F023D0D0
:100860009DBA9EAA03D0C7EC26F01DD09DB89EA8C5
:1008700003D0D0EC25F017D0A3BAA4AA03D078EC0B
:1008800026F011D0A3B8A4A803D0B3EC25F00BD068
:10089000A3B0A4A003D0DDEC20F005D09DB09EA0B5
:1008A00002D045EC28F01AC0F5FF19C0F8FF18C0B7
:1008B000F7FF17C0F6FF16C0F4FF15C0F3FF14C012
:1008C000DAFF13C0D9FF12C0E2FF11C0E1FF10C070
:1008D000EAFF0FC0E9FF0EC0FBFF0DC0FAFF459213
:1008E0001100ACEF1DF072C2F4F0730E0001FD6F49
:1008F000020E0001FE6F2AD3FDC0D9FFFEC0DAFF51
:10090000DF500001F26F030E0001F217D8A40BD0E4
:100910009BEC2AF0480E0001756F7E0E0001766F89
:10092000BFEC0AF025D0FDC0D9FFFEC0DAFFDF50D2
:10093000030BE806D8A409D03B0E0001756F780EB2
:100940000001766FBFEC0AF013D0FDC0D9FFFEC0E6
:10095000DAFFDF50030B020AD8A40AD09BEC2AF07E
:10096000020E0001756F7B0E0001766FBFEC0AF07E
:10097000FDC0D9FFFEC0DAFF0001DFA41200880E1F
:1009800059EC22F01200000E0001F06F820EDAEC3A
:1009900029F01200FDC0D9FFFEC0DAFF0001DFA080
:1009A0000CD0770E0001756F7A0E0001766FBFECE8
:1009B0000AF0010E04EC2AF01200E70E0001756F38
:1009C0007A0E0001766FBFEC0AF0000E04EC2AF0FC
:1009D0001200FDC0D9FFFEC0DAFF0001DFA011D078
:1009E000090E0001756F7D0E0001766FBFEC0AF0F5
:1009F000000E1C6E0A0E1B6E41EC26F00AEC2BF06A
:100A00001200F30E0001756F7C0E0001766FBFECD3
:100A10000AF01200FDC0D9FFFEC0DAFFDF50D8A4F3
:100A20000BD0200E0001756F7C0E0001766FBFECBD
:100A30000AF081EC27F01200FDC0D9FFFEC0DAFFFA
:100A4000DE04D8A40BD0800E0001756F7C0E00016F
:100A5000766FBFEC0AF075EC2AF01200FDC0D9FFEA
:100A6000FEC0DAFF020EDE18D8A41200CAEC23F092
:100A70000001F66F0001F605D8A41200BC0E0001BB
:100A8000756F7B0E0001766FBFEC0AF0000E1C6ED6
:100A90000A0E1B6E41EC26F00AEC2BF01200870EBA
:100AA0000001756F780E0001766FFDC0D9FFFEC0A2
:100AB000DAFFDF500001F26F0001F2510001776FA1
:100AC000786B000120EE01F0FD51D926FE51DA22AB
:100AD000DF500001F36F0001F3510001796F7A6B71
:100AE000BFEC0AF01200FDC0D9FFFEC0DAFFDF50F4
:100AF000D8A41BD0A5EC2AF01B500001F66F000112
:100B0000F6510001D8B40AD05D0E0001756F790E60
:100B10000001766FBFEC0AF096EC2AF0000E00019F
:100B2000F06F850EDAEC29F01200FDC0D9FFFEC08F
:100B3000DAFFDE04D8A4120009EC26F00001F66FFB
:100B40000001F605D8A40FD0F40E0001756F780EE1
:100B50000001766FBFEC0AF0000E0001F06F850E09
:100B6000DAEC29F01200AC0E0001756F780E00016E
:100B7000766FBFEC0AF0120057EC27F00001F66F19
:100B80008C0E0001756F7F0E0001766FF6C077F056
:100B90000001786BBFEC0AF01200FDC0D9FFFEC067
:100BA000DAFFDF50D8A409D0350E0001756F7D0E35
:100BB0000001766FBFEC0AF01200FDC0D9FFFEC045
:100BC000DAFFDE04D8A4C7D0000120EE01F0FD5109
:100BD000D926FE51DA22DF500001F26F0F0E00011C
:100BE000F217000120EE01F0FD51D926FE51DA2264
:100BF000DF500001F36F0001F3390F0B0A0DF350C2
:100C00000001F2250001FC6F000120EE02F0FD5111
:100C1000D926FE51DA22DF500001F26F0F0E0001DB
:100C2000F217000120EE02F0FD51D926FE51DA2222
:100C3000DF500001F36F0001F3390F0B0A0DF35081
:100C40000001F2250001FB6F000120EE03F0FD51D1
:100C5000D926FE51DA22DF500001F26F0F0E00019B
:100C6000F217000120EE03F0FD51D926FE51DA22E1
:100C7000DF500001F36F0001F3390F0B0A0DF35041
:100C80000001F2250001FA6F000120EE04F0FD5191
:100C9000D926FE51DA22DF500001F26F0F0E00015B
:100CA000F217000120EE04F0FD51D926FE51DA22A0
:100CB000DF500001F36F0001F3390F0B0A0DF35001
:100CC0000001F2250001F96F000120EE05F0FD5151
:100CD000D926FE51DA22DF500001F26F0F0E00011B
:100CE000F217000120EE05F0FD51D926FE51DA225F
:100CF000DF500001F36F0001F3390F0B0A0DF350C1
:100D00000001F2250001F86F000120EE06F0FD5110
:100D1000D926FE51DA22DF500001F26F0F0E0001DA
:100D2000F217000120EE06F0FD51D926FE51DA221D
:100D3000DF500001F36F0001F3390F0B0A0DF35080
:100D40000001F2250001F76FF70E1B6E000E1C6EFE
:100D500038EC29F01200130E0001756F7E0E0001B1
:100D6000766FBFEC0AF01200FDC0D9FFFEC0DAFFBB
:100D7000DF50D8A404D08A0E59EC22F01200FDC036
:100D8000D9FFFEC0DAFFDE04D8A40DD05BEC2AF058
:100D90000001F66F0001F6510001D8A412008A0E7E
:100DA00059EC22F01200FDC0D9FFFEC0DAFF020E9E
:100DB000DE18D8A40ED0380E0001756F7C0E00012D
:100DC000766FBFEC0AF08BEC1CF08A0E59EC22F027
:100DD0001200590E0001756F7E0E0001766FBFEC98
:100DE0000AF012008C0EFEEC17F012008D0E59EC7A
:100DF00022F01200FDC0D9FFFEC0DAFFDF50020171
:100E0000A46F000120EE01F0FD51D926FE51DA2237
:100E1000DF500201A66FA56B000120EE02F0FD512C
:100E2000D926FE51DA22DF500001F26F0001F251A3
:100E30000201A513280E0201A46504D0030E0201CD
:100E4000A36F40D0000E0001F56F21D00001F551D5
:100E50000001F26FF36B030E0001F227000EF32383
:100E60000001F2510001FD25D96E0001F35100018E
:100E7000FE21DA6E0001F551010DA70EF324E16E9B
:100E8000020EF420E26EDFCFE7FF0001F52B020136
:100E9000A4510001F55DD8A0D9D7A5C2BBF0A6C268
:100EA000BCF0A4C2BDF0A70E0001BE6F020E00018F
:100EB000BF6F2BEC20F022EEA3F02B0EEBCFDBFF6D
:100EC000E806FCE2A00E59EC22F01200FDC0D9FFAA
:100ED000FEC0DAFFDF500201A46F000120EE01F036
:100EE000FD51D926FE51DA22DF500201A66FA56B13
:100EF000000120EE02F0FD51D926FE51DA22DF502A
:100F00000001F26F0001F2510201A513A5C2BAF06F
:100F1000A6C2BBF0A4C2BCF04EEC21F022EEA3F0BE
:100F20002B0EEBCFDBFFE806FCE2A10E59EC22F022
:100F30001200970E0001756F7C0E0001766FF4C0F1
:100F400077F00001786BBFEC0AF012000001F45159
:100F5000010AD8B4D1D4030AD8B415D5010AD8B43B
:100F600019D5070AD8B435D5010AD8B453D5030A20
:100F7000D8B495D5010AD8B4B6D50F0AD8B4FCD5E3
:100F8000010AD8B40AD6030AD8B4EED6060AD8B4F1
:100F900029D7010AD8B42AD72D0AD8B42BD7010AE9
:100FA000D8B494D7C6D70101746F000E01017A6FCF
:100FB00001017A51010DF3500001E925D96EF45079
:100FC0000001EA21DA6E74C1DFFF01017A2BA1D2A0
:100FD000FEEC2AF00101776F010177510101D8A4DD
:100FE0001CD001017A51010DF3500001E925D96EA1
:100FF000F4500001EA21DA6E000EDF6E01017A2B57
:1010000001017A51010DF3500001E925D96EF45028
:101010000001EA21DA6E000E1BD001017A51010DA8
:10102000F3500001E925D96EF4500001EA21DA6E8F
:10103000010EDF6E01017A2B01017A51010DF3508F
:101040000001E925D96EF4500001EA21DA6E010EA3
:10105000DF6E01017A2B010177510101D8A409D07B
:10106000EE0E0001756F7F0E0001766FBFEC0AF087
:1010700083D2E90E0001756F7F0E0001766FBFEC21
:101080000AF07AD28BA20ED001017A51010DF350F1
:101090000001E925D96EF4500001EA21DA6E000E54
:1010A000DB800DD001017A51010DF3500001E925DB
:1010B000D96EF4500001EA21DA6EFE0EDF16FBEC69
:1010C0002AF0E806D8A40ED001017A51010DF350A0
:1010D0000001E925D96EF4500001EA21DA6E000E14
:1010E000DB828FD101017A51010DF3500001E92516
:1010F000D96EF4500001EA21DA6EFD0EDF1681D1BF
:10110000FBEC2AF00009D8A40DD001017A51010DA1
:10111000F3500001E925D96EF4500001EA21DA6E9E
:10112000000E0CD001017A51010DF3500001E925A8
:10113000D96EF4500001EA21DA6E010EDF6E010172
:101140007A2BA5EC2AF01BC078F11CC079F10101C3
:101150007A51010DF3500001E925D96EF4500001D8
:10116000EA21DA6E01017951DF6E01017A2B01016A
:101170007A51010DF3500001E925D96EF4500001B8
:10118000EA21DA6E78C1DFFF3CD101017A51010D0D
:10119000F3500001E925D96EF4500001EA21DA6E1E
:1011A000010EDF6E2ED110EC2BF00009D8A40ED06A
:1011B00001017A51010DF3500001E925D96EF45077
:1011C0000001EA21DA6E000EDB800DD001017A51B8
:1011D000010DF3500001E925D96EF4500001EA2118
:1011E000DA6EFE0EDF1601017A2BA0EC2AF01BC08E
:1011F00075F11CC076F101017A51010DF350000127
:10120000E925D96EF4500001EA21DA6E0101765128
:10121000DF6EE7D001017A51010DF3500001E9259D
:10122000D96EF4500001EA21DA6E75C1DFFFE9D012
:10123000000E0101796F000E786F0101795106E10E
:10124000050E0101785DD8B097D101D095D1E30E9C
:1012500001017825F66E7F0E7921F76E01017A5132
:10126000010DF3500001E925D96EF4500001EA2187
:10127000DA6E0800F5CFDFFF01017A2B0101784B10
:10128000792B0101795101E1DBD776D10EEC19F010
:101290000001EC6F01017A51010DF3500001E925C5
:1012A000D96EF4500001EA21DA6EECC0DFFFA9D05C
:1012B00001017A51010DF3500001E925D96EF45076
:1012C0000001EA21DA6E0EEC2BF0DF6E01017A2BC1
:1012D00001017A51010DF3500001E925D96EF45056
:1012E0000001EA21DA6E0CEC2BF00001EC6F00013A
:1012F000EC29DF6E01017A2B680E0001E76F010E09
:101300000001E86F10EC10F00101776F2A0E010167
:10131000776503D02A0E0101776F000E0101796F06
:10132000000E786F1AD0680E01017825D96E010E73
:1013300001017921DA6E01017A51010DF3500001AA
:10134000E925E16EF4500001EA21E26EDFCFE7FF0C
:1013500001017A2B0101784B792B010177510001B2
:10136000EC6FED6B0001EC510101785D0001ED5176
:1013700001017959D8A0D7D7DBEC22F0FDD0F8ECE9
:101380002AF00101776F01017705D8A416D0010179
:101390007A51010DF3500001E925D96EF450000196
:1013A000EA21DA6E000EDB80FC0E0001756F7F0E05
:1013B0000001766FBFEC0AF024D001017A51010DD3
:1013C000F3500001E925D96EF4500001EA21DA6EEC
:1013D000FE0E94D6AFEC2AF01BC075F11CC076F15E
:1013E0000AD701017A2B16D701017A51010DF3506A
:1013F0000001E925D96EF4500001EA21DA6EA3C29A
:10140000DFFF01017A2BB8D001017A51010DF350B1
:101410000001E925D96EF4500001EA21DA6EA3C279
:10142000DFFF01017A2B01017A51010DF350000118
:10143000E925D96EF4500001EA21DA6E0201A651C5
:10144000DF6E01017A2B01017A51010DF350000189
:10145000E925D96EF4500001EA21DA6EA5C2DFFF5A
:1014600001017A2B01017A51010DF3500001E925A8
:10147000D96EF4500001EA21DA6EA4C2DFFF010147
:101480007A2B280E0201A46503D0030E0201A36F7C
:101490000201A351D8A470D0000E0101796F000E93
:1014A000786F1AD0A70E01017825D96E020E0101BE
:1014B0007921DA6E01017A51010DF3500001E9251D
:1014C000E16EF4500001EA21E26EDFCFE7FF010197
:1014D0007A2B0101784B792B0201A4510001EC6FAA
:1014E000ED6B0001EC510101785D0001ED5101014E
:1014F0007959D8B041D0D6D71F0E0001756F7D0E37
:101500000001766F74C177F00001786BBFEC0AF0D0
:1015100033D001017451810AD8B437D6030AD8B444
:1015200057D5010AD8B4AED5060AD8B4E9D5030A0E
:10153000D8B42BD6010AD8B436D60F0AD8B478D688
:10154000020AD8B4A3D6010AD8B4B2D6070AD8B4CE
:1015500016D7010AD8B43ED71D0AD8B40DD0010A57
:10156000D8B40AD0030AD8B407D0320AD8B43CD7CA
:10157000010AD8B449D7C0D701017A511200770EB9
:101580000001886F000E0001896FD3D2250E000183
:101590009119D8B405D000019151AAEC2AF0C9D212
:1015A000000E0001906F000E8F6F000E00018E6F15
:1015B00005D000018E850001754B762B75C0F6FFB6
:1015C00076C0F7FF0800F550300AD8B4F2D775C0DE
:1015D000F6FF76C0F7FF0800F550CCEC28F0D8A055
:1015E000D0D0000E0001906F000E8F6F8FC01BF0E7
:1015F00090C01CF0000E1E6E0A0E1D6E32EC28F01C
:101600001BC08FF01CC090F0D00E00017D6FFF0E4C
:1016100000017E6F75C0F6FF76C0F7FF0800F55039
:1016200000017F6F806B00017D5100017F27000169
:101630007E510001802300017F5100018F270001AE
:101640008051000190230001754B762B75C0F6FF89
:1016500076C0F7FF0800F550CCEC28F0D8A091D068
:10166000C5D700018E898DD000018E8FA9D088C08A
:10167000D9FF89C0DAFFDECF84F0DDCF85F0020E1E
:1016800000018827000E8923000184510001851183
:10169000D8A406D0C10E0001846F7F0E0001856FB3
:1016A000000E0001876F000E866F03D00001864B8D
:1016B000872B000186510001842500017D6F000108
:1016C00087510001852100017E6F7DC0F6FF7EC03D
:1016D000F7FFF86A0F0EF76403D00800F55005D045
:1016E000F6CFE9FFF7CFEAFFEF500009D8A4DED725
:1016F00000018F510001865D000190510001875962
:10170000D8B009D00001865100018F5F00018751D8
:101710000001905B09D0000E0001906F000E8F6FEA
:1017200003D0200EAAEC2AF000018F07D8A0900762
:1017300000018F29F6E100019029D8B416D0F1D725
:1017400084C0F6FF85C0F7FFF86A0F0EF76403D078
:101750000800F55005D0F6CFE9FFF7CFEAFFEF50CC
:10176000AAEC2AF00001844B852B00018607D8A043
:10177000870700018629E4E100018729D8B4D9D17F
:10178000DFD775C0F6FF76C0F7FF0001754B762BEB
:101790000800F5CF91F000019151000AD8B4120071
:1017A000640AD8B40DD00D0AD8B40AD0050AD8B44A
:1017B00058D71F0AD8B45BD70B0AD8B455D7B9D1BC
:1017C00000018EBF34D000018EA90ED088C0D9FF91
:1017D00089C0DAFFDECF8AF0DECF8BF0DECF8CF06F
:1017E000DECF8DF0040E0FD088C0D9FF89C0DAFF9C
:1017F000DECF8AF0DDCF8BF00001000E8BBFFF0E35
:101800008C6F8D6F020E00018827000E8923000166
:101810008DAF7FD0030E00018E1300018D1F8C1F32
:101820008B1F8A6D000E8B238C238D2372D00001B9
:101830008EA90ED088C0D9FF89C0DAFFDECF8AF02A
:10184000DECF8BF0DECF8CF0DECF8DF0040E10D02B
:1018500088C0D9FF89C0DAFFDECF7DF0DDCF7EF012
:101860007DC08AF07EC08BF000018C6B8D6B020E08
:1018700000018827000E89234CD0010E0001916FD2
:101880000A0E00019119D8B44DD000019151040DF8
:101890009D0EF324F66E770EF420F76E0900F550D6
:1018A00000018A5D0900F55000018B590900F550CF
:1018B00000018C590900F55000018D59D8A032D093
:1018C0000001912BDDD7010E0001916F080E000180
:1018D0009119D8B427D000019151040DC50EF324FD
:1018E000F66E770EF420F76E0900F55000018A5D60
:1018F0000900F55000018B590900F55000018C5981
:101900000900F55000018D59D8A00CD00001912B91
:10191000DDD700018E51800B000AD8B4AED7800A03
:10192000D8B4D1D700018F5100019011D8B40BD099
:101930008EC07DF0030E00017D17D8B404D00001E5
:101940008F07D8A09007800E000191BF7F0E000185
:101950007D6F00018F510001915D00019051800A5F
:1019600000017D59D8B00BD00001915100018F5F6B
:10197000000E000191BFFF0E0001905B05D0000E2C
:101980000001906F000E8F6F00018EA518D08EC0E1
:101990007DF0030E00017D17D8B403D02D0EAAEC04
:1019A0002AF000018F5100019011D8B425D0300EDB
:1019B000AAEC2AF000018F07D8A09007F2D7000107
:1019C0008F5100019011D8B40DD0200EAAEC2AF04E
:1019D00000018F07D8A0900700018F5100019011DE
:1019E000D8A4F3D78EC07DF0030E00017D17D8B4C4
:1019F00003D02D0EAAEC2AF0000191510001826F54
:101A0000836B82BF83078AD082C07DF083C07EF063
:101A10000001D8907D377E370001D8907D377E3722
:101A20009D0E00017D25F66E770E7E21F76E090072
:101A3000F5CF64F00900F5CF65F00900F5CF66F049
:101A40000A00F5CF67F08AC060F08BC061F08CC0EF
:101A500062F08DC063F04EEC1DF060C06DF061C0AF
:101A60006EF062C06FF063C070F00A0E0001716F1B
:101A7000000E726F000E736F000E746FDDEC1EF0BF
:101A800000016D51300F0001916F44D08AC060F0A9
:101A90008BC061F08CC062F08DC063F082C07DF0BD
:101AA00083C07EF00001D8907D377E370001D8904A
:101AB0007D377E37C50E00017D25F66E770E7E21BF
:101AC000F76E0900F5CF64F00900F5CF65F0090065
:101AD000F5CF66F00A00F5CF67F04EEC1DF000017F
:101AE00060510F0B0001816F00018151010D370E14
:101AF000F324F66E7E0EF420F76E0800F5CF91F019
:101B000009D000018E51800B000AD8B47DD7800A1D
:101B1000D8B4BCD700019151AAEC2AF00001820789
:101B2000D8A0830700018229ECE100018329D8A411
:101B3000E8D775C0F6FF76C0F7FF0001754B762B2E
:101B40000800F5CF91F000019151D8B412001ED5D4
:101B5000000E0001A86F71C2B2F00001B36B000E5D
:101B60000001B46F000EB56F000EB66F000EB76FB8
:101B70000101BF510101D8B41AD0000E0101BF6F9D
:101B8000EFC1A0F0F0C1A1F0F1C1A2F0F2C1A3F049
:101B9000A1C0A3F0A0C0A2F00001A16BA06BA0C0E7
:101BA000B4F0A1C0B5F0A2C0B6F0A3C0B7F072C245
:101BB000A0F00001A16BA26BA36BA2C0A3F0A1C017
:101BC000A2F0A0C0A1F00001A06B0001A051000193
:101BD000B4130001A1510001B5130001A25100018D
:101BE000B6130001A3510001B713020173510001A4
:101BF000B41374C2ABF00001AB510001D8A4C9D139
:101C00000001B35105E1410E0001B25DD8A00BD037
:101C1000C30E0001756F790E0001766FBFEC0AF0FC
:101C2000CAEC2AF0FAD10001B75104E10001B6056F
:101C3000D8A06FD0300E0001B6190001B411000118
:101C4000B5110001B711D8A453D00001B35105E17B
:101C5000100E0001B25DD8A011D03A0E0001756FD0
:101C6000790E0001766FB2C077F0B3C078F0BFECA8
:101C70000AF0000E0001B36F000EB26F000E1C6E72
:101C80000F0E1B6EB2C01DF096EC25F0000E000189
:101C9000AD6F000EAC6F21D0100E0001AC251B6E95
:101CA000000E0001AD211C6E040E0001AC250001E8
:101CB000A06F000E0001AD210001A16F710E0001A7
:101CC000A025D96E020E0001A121DA6EDF501D6E33
:101CD00096EC25F00001AC4BAD2B0001B251000198
:101CE000AC5D0001B3510001AD59D8B096D1D4D745
:101CF000170E0001756F790E0001766FB4C077F092
:101D0000B5C078F0B6C079F0B7C07AF0BFEC0AF091
:101D100084D10001B7510001B61105E1800E000128
:101D2000B55DD8A013D0A10E0001756F790E00012A
:101D3000766FB4C077F0B5C078F0B6C079F0B7C0B0
:101D40007AF0BFEC0AF0CAEC2AF067D10001B58F37
:101D5000C00E0101EF150001A46FFF0E0101F01587
:101D60000001A56F000E0101F1150001A66F000E24
:101D70000101F2150001A76FC00E0001B4150001AA
:101D8000AE6FFF0E0001B5150001AF6F000E000130
:101D9000B6150001B06F000E0001B7150001B16F5C
:101DA0000001AE510001A41910E10001AF51000182
:101DB000A5190BE10001B0510001A61906E10001CF
:101DC000B1510001A719D8B455D0AEC095F0AFC03D
:101DD00096F0B0C097F0B1C098F0010E0001996F75
:101DE0006DEC15F00001B4510001AE1910E10001D5
:101DF000B5510001AF190BE10001B6510001B01956
:101E000006E10001B7510001B119D8B433D0AEC01A
:101E1000A0F0AFC0A1F00001A01FA11FA04BA12BFB
:101E20000001B4510001A0252B6E0001B551000145
:101E3000A1212C6E880E0001756F7B0E0001766F5C
:101E4000AEC077F0AFC078F0B0C079F0B1C07AF032
:101E5000BFEC0AF08C0E0001756F7E0E0001766FEC
:101E6000B4C077F0B5C078F0B6C079F0B7C07AF0FA
:101E7000BFEC0AF00001B2512B240001A06F000159
:101E8000B3512C200001A16F0001A15105E1410EC9
:101E90000001A05DD8A048D02BC0A0F02CC0A1F0BC
:101EA0000001A01FA11FA04BA12B400E0001A025E7
:101EB0000001A96F000E0001A1210001AA6FB20E5E
:101EC0002B241B6E030E2C201C6E750E1D6E020E35
:101ED0001E6EA9C01FF0AAC020F0BCEC24F0000EBA
:101EE0002C6E400E2B6E400E0101EF250001956F08
:101EF000000E0101F0210001966F000E0101F12199
:101F00000001976F000E0101F2210001986F030E8E
:101F10000001996F6DEC15F00001A9510001B25F4D
:101F20000001AA510001B35BB20E2B241B6E030EFD
:101F30002C201C6E750E1D6E020E1E6EB2C01FF0A0
:101F4000B3C020F0BCEC24F00001B2512B260001FC
:101F5000B3512C22400E2B182C10D8A45ED02B503D
:101F60000101EF250001956F2C500101F0210001C6
:101F7000966F000E0101F1210001976F000E010123
:101F8000F2210001986F040E0001996F6DEC15F0BD
:101F900044D00001AB05D8A411D0B4C095F0B5C0B1
:101FA00096F0B6C097F0B7C098F0050E0001996F93
:101FB0006DEC15F0010E0001A86F2FD0040E00018A
:101FC000AB19D8A42AD075C2A0F00001A16BA26BF6
:101FD000A36BA2C0A3F0A1C0A2F0A0C0A1F0000119
:101FE000A06BA0C0B4F0A1C0B5F0A2C0B6F0A3C071
:101FF000B7F0020176510001B413B4C095F0B5C03A
:1020000096F0B6C097F0B7C098F0060E0001996F31
:102010006DEC15F0010E0101BF6F0001A851120017
:10202000000E01012C6F000E0001BB6F000EBA6F95
:10203000010E0001BC6FBEEC21F021EE32F02B0E40
:10204000EBCFDBFFE806FCE2010132510101D8A42D
:10205000C6D136C15EF1130E01015E6509D0CD0E09
:102060000001756F7E0E0001766FBFEC0AF0B7D1EC
:102070000CEC2BF0286E296A281E291E284A292AD2
:102080000EEC2BF02A6E2A5028240101306F000E2E
:1020900029200101316F010131BF07D00101315108
:1020A00010E101013005D8B00CD0250E0001756F8C
:1020B0007E0E0001766F30C177F031C178F0BFEC51
:1020C0000AF001015E51286E296A01013051285C35
:1020D0002950800A2A6E01013151800A2A58D8A05D
:1020E00005D00101305101015E5F08D0010130517E
:1020F000000801015E25140F01015E6F130E01013E
:102100005E6515D0930E0001756F7A0E0001766F33
:102110005EC177F00001786B2FC179F000017A6B16
:1021200030C17BF031C17CF0BFEC0AF058D1010125
:102130005E51090D010EF32401012D6F000EF420F4
:1021400001012E6F2DC1BAF02EC1BBF0090E0001A6
:10215000BC6FBEEC21F021EE32F02B0EEBCFDBFF9B
:10216000E806FCE2010132510101D8A438D1000E89
:1021700001012F6F080E01012F6501D01BD0010155
:102180002F51010D040EF326000EF422320EF3241B
:10219000D96E010EF420DA6E01012F51010D5F0E90
:1021A000F324E16E010EF420E26EDFCFE7FF0101C0
:1021B0002F2BE0D70101662930E101016729D8A45E
:1021C0002CD0AE0E0001756F7C0E0001766F5EC1E3
:1021D00077F00001786BBFEC0AF05F0E1B6E010E0A
:1021E0001C6E000E1E6E000E1D6E000E206E090E7F
:1021F0001F6E41EC27F0040E0101366F2DC1BBF0BC
:102200002EC1BCF0010E0001BD6F360E0001BE6F85
:10221000010E0001BF6F67EC20F0E7C0D9FFE8C0F6
:10222000DAFF5FC1DFFF000120EE01F0E751D926A0
:10223000E851DA2265C11BF01C6A000E1E6E0A0E00
:102240001D6E86EC21F01BC028F01CC029F065C172
:102250001BF01C6A000E1E6E0A0E1D6EADEC1FF008
:102260001B38F00B2824DF6E000120EE02F0E7514E
:10227000D926E851DA2264C11BF01C6A000E1E6EDA
:102280000A0E1D6E86EC21F01BC028F01CC029F040
:1022900064C11BF01C6A000E1E6E0A0E1D6EADECB2
:1022A0001FF01B38F00B2824DF6E000120EE03F036
:1022B000E751D926E851DA2263C11BF01C6A000EEF
:1022C0001E6E0A0E1D6E86EC21F01BC028F01CC08D
:1022D00029F063C11BF01C6A000E1E6E0A0E1D6EF3
:1022E000ADEC1FF01B38F00B2824DF6E000120EE50
:1022F00004F0E751D926E851DA2262C11BF01C6ACA
:10230000000E1E6E0A0E1D6E86EC21F01BC028F01A
:102310001CC029F062C11BF01C6A000E1E6E0A0E62
:102320001D6EADEC1FF01B38F00B2824DF6E000192
:1023300020EE05F0E751D926E851DA2261C11BF001
:102340001C6A000E1E6E0A0E1D6E86EC21F01BC06C
:1023500028F01CC029F061C11BF01C6A000E1E6E23
:102360000A0E1D6EADEC1FF01B38F00B2824DF6E3B
:10237000000120EE06F0E751D926E851DA2260C1CB
:102380001BF01C6A000E1E6E0A0E1D6E86EC21F0FC
:102390001BC028F01CC029F060C11BF01C6A000E95
:1023A0001E6E0A0E1D6EADEC1FF01B38F00B2824BC
:1023B000DF6E000120EE07F0E751D926E851DA225E
:1023C00001016751DF6E000120EE08F0E751D926C8
:1023D000E851DA2266C1DFFF090E01012C6F01010D
:1023E0002C5112007DEC29F00001F26F54D1000E47
:1023F0001C6E0A0E1B6E41EC26F085EC22F096EC6A
:102400002AF004EC2BF01CEC2AF013D0E6EC27F0B9
:10241000EAEC28F0000E1C6E010E1B6E41EC26F05B
:102420007DEC29F00001F26F0001F205D8B420EC38
:1024300029F0100E20D10001F205D8A407D0000E1B
:102440000101F66F0A0EF56F220E15D143504410AC
:10245000D8A44BD1110E0FD1A70E0001756F7F0EBE
:102460000001766FBFEC0AF004EC2BF07BEC2AF055
:102470006D0E0001756F7F0E0001766FBFEC0AF0E4
:1024800043504410D8B40CD0CF0E0001756F7F0EAE
:102490000001766F43C077F044C078F0BFEC0AF0DB
:1024A0006C0E0001756F7B0E0001766FBFEC0AF0B9
:1024B0004A0E435C010E4458D8B012D0010E446E4F
:1024C0004A0E436E0DD00101F5510101F611D8B449
:1024D00007D00001F2510001D8A407D1120ECBD0D1
:1024E000230EC9D043504410D8A4FFD0F8EC28F0F4
:1024F000E6EC2AF0780E0001756F7F0E0001766F12
:10250000BFEC0AF0240EB7D0140E356417D0DC0EE1
:102510000001756F7C0E0001766F35C077F0000109
:10252000786BBFEC0AF0E6EC2AF0FB0E0001756F49
:102530007E0E0001766FBFEC0AF0D7D0D1EC29F007
:10254000E806D8A40BD00101CA05D8A404D0010E16
:102550005DEC26F003D0000E5DEC26F00001F205E4
:10256000D8A40DD00A0E0101F3190101F411D8B459
:10257000BCD0000E0101F46F0A0EF36FB6D001015A
:10258000F3510101F411D8A4B0D0300E0001FF6F57
:10259000230E0001756F7F0E0001766FBFEC0AF00D
:1025A000A4D0A5EC2AF01B501C10D8B410D0000108
:1025B000F205D8A49AD0240E0001FF6F090E000185
:1025C000756F7F0E0001766FBFEC0AF08ED00F0E94
:1025D0003A6E3AC0DAF123EC2AF0160E0001756F5C
:1025E0007F0E0001766FBFEC0AF0000E0101D96F7B
:1025F000310E41D00001F205D8A402D0210E3BD00B
:102600003A50D8B416D03A500101DA19D8B46DD086
:102610003AC0DAF10101D951D8A467D023EC2AF0ED
:102620009E0E0001756F7F0E0001766FBFEC0AF001
:102630005CD0320E0001FF6F620E0001756F7F0EDD
:102640000001766FBFEC0AF050D09CEC28F0C2EC91
:102650002AF0010E446EFE0E436E7BEC2AF03ED74C
:102660009CEC28F0C2EC2AF0010E446EFE0E436E84
:102670007BEC2AF0DED60001FF6F37D0C50E0001DB
:10268000756F7C0E0001766FFFC077F00001786BEC
:10269000BFEC0AF0CED60001FF51000AD8B4A7D68D
:1026A000100AD8B422D0010AD8B4B0D6030AD8B4DC
:1026B000C2D6320AD8B4D0D6010AD8B4D5D6030AC5
:1026C000D8B401D7010AD8B40DD7070AD8B41CD79B
:1026D000140AD8B466D7010AD8B48CD7030AD8B480
:1026E000B4D7010AD8B4BCD7C9D70001FF51010142
:1026F000EE19D8B41200FFC0EEF112000101E5A1FD
:1027000005D00101E5910101BD4BBE2B0101C15175
:10271000D8A46AD0070E0001756F7C0E0001766F99
:10272000BFEC0AF025EC26F00101B56F0101B551AF
:102730000101D8B40AD0D00E0001756F780E0001E7
:10274000766FBFEC0AF069EC28F0000E0101B16F62
:10275000800EB26F000EB36F000EB46F0101B45162
:1027600016E10101B305D8B012D0B1C11BF0B2C15E
:102770001CF0B3C11DF0B4C11EF0ADEC26F0400E4C
:102780000101B127000EB223B323B423E7D7B20E61
:102790001B6E030E1C6E000E1E6E1D68000E206E5A
:1027A000400E1F6E41EC27F0000E2C6E000E2B6EBB
:1027B000000E0101EF6F800EF06F000EF16F000E42
:1027C000F26F000E0101BC6F000EBB6F000E010125
:1027D000BF6F000E0101BE6F000EBD6FF5EC2AF059
:1027E000010E0101C16F12000101C105D8A406D07C
:1027F00046EC2AF0020E0101C16F1200020E010127
:10280000C119D8A434D098EC14F00101B56F0101BE
:10281000BE5105E1C80E0101BD5DD8A003D0010E77
:1028200046EC1EF00101B505D8A41200A8EC0DF08D
:102830000101B06F4DEC2AF0B90E0001756F7F0EEB
:102840000001766FBBC177F0BCC178F0BFEC0AF035
:10285000000E0101BE6F000EBD6F0101B005D8A4CE
:102860001200000E316E030E0101C16F1200030E43
:102870000101C119D8A417D026EC16F00101B06FE0
:102880000101BE5105E1C80E0101BD5DD8A003D014
:10289000010E46EC1EF00101B005D8A41200040E92
:1028A0000101C16F1200040E0101C119D8A418D092
:1028B0009BEC24F00101B56F0101B505D8A404D04B
:1028C000050E0101C16F1200380E0001756F7B0EFD
:1028D0000001766FBFEC0AF0040E46EC1EF0120009
:1028E000050E0101C119D8A414D058EC28F0610ECE
:1028F0000001756F780E0001766FBFEC0AF0000ED4
:102900001C6E0A0E1B6E41EC26F0060E0101C16F13
:102910001200060E0101C119D8A412003FEC2AF0E2
:1029200009EC26F0000E0101C16F1FEC28F0120027
:10293000000E0001F96FCBD078EC25F00001FB6FA1
:102940003A0E0001FB19D8A417D00101BB4BBC2BD8
:10295000000E0101C46F000E316E710E1B6E020E6F
:102960001C6E000E1E6E000E1D6E000E206E320ECE
:102970001F6E41EC27F0ABD00A0E0001FB19D8B452
:10298000A6D00D0E0001FB19D8B4A1D0FB0E1B6E12
:10299000000E1C6E2CEC22F00009D8A40FD0B00E53
:1029A0000001756F7F0E0001766FFBC077F00001AC
:1029B000786BBFEC0AF0CAEC2AF089D031B00BD0AA
:1029C000FBC0F2F00F0E0001F2170001F239F00B1C
:1029D0000101E86F7BD00001FB510F0B0101E813EF
:1029E000FF0E0001F26FFF0E0001F36F3150000186
:1029F000F46FF56B0001F2510001F4270001F3516F
:102A00000001F5230001F535F5310001F76F0001F4
:102A1000F4310001F66F0001F6510001FA6F000178
:102A2000FA51010D710EF324D96E020EF420DA6E04
:102A3000E8C1DFFF0001FA510001D8A403D0E8C1CA
:102A4000C4F144D00001FA510001F26FF36B0101AF
:102A5000C4510001F46FF56B040E0001F427000E61
:102A6000F5230001F2510001F41930E10001F351A6
:102A70000001F519D8A42AD0710E1B6E020E1C6E2F
:102A8000FAC01DF01E6A93EC26F00001F86F0001F9
:102A9000FA51010D710EF324D96E020EF420DA6E94
:102AA0000001F851DE18D8A404D0010E0001F96F1E
:102AB00011D038EC2AF0820E0001756F7F0E0001F4
:102AC000766FBFEC0AF0CAEC2AF004D0312A3850F5
:102AD000D8A432D70001F95112002B502C10D8B4D1
:102AE00098D0EFC120F0F0C121F0F1C122F0F2C185
:102AF00023F0B20E246E030E256EC1EC1BF0000114
:102B00009C6F9D6B9CBF9D0700019C5100019D1116
:102B1000D8B40CD0DD0E0001756F7F0E0001766F0A
:102B200099C077F00001786BBFEC0AF0000E00014D
:102B30009F6F000E9E6F00019F5159E1400E0001F2
:102B40009E5DD8B054D000019E510101EF251B6E4F
:102B500000019F510101F0211C6E000E0101F121C5
:102B60001D6E000E0101F2211E6EC8EC29F000015D
:102B70009A6F00019A5100019C6F9D6BB20E00018B
:102B80009E25D96E030E00019F21DA6EDF500001F1
:102B90009A6F9B6B00019C5100019A1906E100019C
:102BA0009D5100019B19D8B41ED0CB0E0001756F4A
:102BB0007A0E0001766F9CC077F09DC078F0B20E5F
:102BC00000019E25D96E030E00019F21DA6EDF50B1
:102BD00000019A6F00019A510001796F7A6BBFEC86
:102BE0000AF0CAEC2AF000019E4B9F2BA4D7000EDE
:102BF0002C6E000E2B6EB20E1B6E030E1C6E000EA2
:102C00001E6E1D68000E206E400E1F6E41EC27F0F8
:102C100014D0100E0001756F780E0001766F99C008
:102C200077F00001786B95C079F096C07AF097C084
:102C30007BF098C07CF0BFEC0AF095C0EFF196C035
:102C4000F0F197C0F1F198C0F2F11200000E00010E
:102C5000986F2CD078EC25F000019B6F3A0E0001A4
:102C60009B19D8A403D0000E316E15D09B0E1B6E9D
:102C7000000E1C6E2CEC22F00009D8A40CD0B00E73
:102C80000001756F7F0E0001766F9BC077F0000129
:102C9000786BBFEC0AF03150010D710EF324D96E40
:102CA000020EF420DA6E9BC0DFFF312A3850D8A420
:102CB000D1D7040E31646DD0020172510F0B0001A7
:102CC000956F966B0C0ED890000195379637E82ECD
:102CD000FAD795C099F096C09AF073C295F00F0E8E
:102CE00000019517000195510001976F966B000147
:102CF0009651000199130001975100019A130201A6
:102D000074510F0B0001956F966B0001953B963B3C
:102D1000F00E961795510F0B9613F00E95170001B4
:102D20009551000199130001965100019A1375C243
:102D300095F00F0E000195170001955100019913B0
:102D40000101BB510001991912E10101BC510001BF
:102D50009A19D8A40CD0770E0001756F7D0E000172
:102D6000766FBFEC0AF0010E0001986F12D0AF0E23
:102D70000001756F7A0E0001766F99C077F09AC0E6
:102D800078F0BBC179F0BCC17AF0BFEC0AF0CAECB4
:102D90002AF00001985112002A6E000E286E0101DF
:102DA000C551D8A406D0AA0E2A18D8A402D0010E64
:102DB0001FD00101C505D8A41AD0880E2A18D8A49E
:102DC00016D03250D8B40ED09D0E0001756F7E0E15
:102DD0000001766FBFEC0AF0000E1C6E020E1B6E37
:102DE00041EC26F0010E326E010E0101C26F000EA1
:102DF0000101C56F0101C551D8A464D03204D8A423
:102E000002D0020E09D0020E3218D8A407D02AC070
:102E1000C3F1000E316E030E326E54D0030E321821
:102E2000D8A450D03150D8B42AC0C4F13150010DCB
:102E3000710EF324D96E020EF420DA6E2AC0DFFF81
:102E400031500001926F936B0101C4510001946FE6
:102E5000956B010E00019427000E952300019251FD
:102E6000000194192EE10001935100019519D8A495
:102E700028D0AA0E296E880E29260101C3512926C1
:102E8000710E1B6E020E1C6E31502AEC27F02926A3
:102E90003150010D710EF324D96E020EF420DA6E5A
:102EA0002950DE18D8A403D0010E286E08D0C90E10
:102EB0000001756F7D0E0001766FBFEC0AF0000E09
:102EC000326E312A3250D8A407D00101C251D8B491
:102ED00003D0000E0101C26F28501200000E000145
:102EE0008F6F60C091F061C092F062C090F00001FD
:102EF0006551000191251F6E00016651000192216C
:102F0000206E040E205CD8A002D0020E5BD000011F
:102F10009051000191251F6E000E00019221206E3C
:102F2000020E205CD8A002D0030E4CD0000E00018F
:102F30008E6F000E8D6F4CD0000165510001912500
:102F40001F6E0001665100019221206E00018D511B
:102F50001F241B6E00018E5120201C6E00018D511C
:102F600000016325D96E00018E5100016421DA6EE3
:102F7000DF501D6E96EC25F0000165510001912592
:102F80001F6E0001665100019221206E00018D51DB
:102F90001F241B6E00018E5120201C6E44EC29F072
:102FA00000018C6F00018D5100016325D96E000175
:102FB0008E5100016421DA6E00018C51DE18D8B404
:102FC00004D0010E00018F6F0FD000018D4B8E2BAE
:102FD000000190511F6E206A1F5000018D5D20502E
:102FE00000018E59D8A0A8D720EE8FF000EE60F037
:102FF0002B0EDBCFEBFFE806FCE212000101AD6F08
:1030000023EE80F011EE7BF0310EDBCFE3FFE8061C
:10301000FCE2C80E0001756F7F0E0001766FBFECF9
:103020000AF0AA0E01017B6F880E01017C6F000E71
:1030300001017D6F7F0E0001E96F010E0001EA6F53
:10304000000E0001EB6F0101AD51D3EC07F001015F
:103050007E6F01017E51040F0101AF6F7B0E1B6E6D
:10306000010E1C6E0101AF512AEC27F00001EE6F3A
:103070000101AF51010D7B0EF324D96E010EF42036
:10308000DA6EEEC0DFFF0101AF2B000E0101AE6F63
:1030900032D00101AF070101AE510101D8B410D007
:1030A0000101AE51010D7B0EF324D96E010EF42007
:1030B000DA6EAA0EDE18D8A403D0AA0E12EC24F001
:1030C0008C0E0101AD19D8A408D0F30E0001756F64
:1030D0007F0E0001766FBFEC0AF00101AE51010DC9
:1030E0007B0EF324D96E010EF420DA6EDF5012EC61
:1030F00024F00101AE2B0101AF510101D8A4C9D7C1
:103100006C0E0001756F7B0E0001766FBFEC0AF04C
:10311000120001012C6F010E01012E6F000E000143
:10312000BB6F000EBA6F010E0001BC6FBEEC21F048
:1031300021EE2FF02B0EEBCFDBFFE806FCE20101C6
:103140002F510101D8A467D033C190F1130E0101B2
:10315000906503D0000E0101906F01019051090D9F
:10316000F32801012D6F2CC187F191EC2AF01BC0CF
:10317000D9FF1CC0DAFF11EE88F0050EDBCFE3FFAC
:10318000E806FCE28AEC19F027C08EF128C08FF126
:103190002DC1BBF00001BC6B090E0001BD6F870E95
:1031A0000001BE6F010E0001BF6F67EC20F021EE41
:1031B0005BF02B0EEBCFDBFFE806FCE201015B517D
:1031C0000101D8A428D00101902B130E01019065B4
:1031D00003D0000E0101906F000E0001BC6F000EC5
:1031E000BB6F010E0001BD6F900E0001BE6F010E9E
:1031F0000001BF6F67EC20F021EE5BF02B0EEBCFF0
:10320000DBFFE806FCE201015B510101D8A403D019
:10321000000E01012E6F01012E511200000E01015E
:103220002E6F000E0001BB6F000EBA6F010E000181
:10323000BC6FBEEC21F021EE32F02B0EEBCFDBFFAA
:10324000E806FCE2010132510101D8A460D036C188
:1032500031F1130E0101316513D0000E0101316F00
:10326000000E0001BC6F000EBB6F010E0001BD6FB0
:10327000310E0001BE6F010E0001BF6F67EC20F040
:10328000000E0101306F000E2F6F010130513FE140
:10329000140E01012F5DD8B03AD001013151010166
:1032A000D8A404D0130E0101316F02D001013107FF
:1032B00001013151090D010EF32401012C6F000EA3
:1032C000F42001012D6F2CC1BAF02DC1BBF0010E0D
:1032D0000001BC6FBEEC21F021EE32F02B0EEBCFE3
:1032E000DBFFE806FCE2010132510101D8A40FD056
:1032F00001013651D8B40BD0030E0101366501D05F
:1033000006D001012E2B01012F4B302BBED701011E
:103310002E51120060C21BF061C21CF01D6A1E6AB1
:10332000080E1F6E040E206E000E216E000E226E1F
:10333000B0EC22F01BC060F01CC061F01DC062F058
:103340001EC063F0640E0001646F000E656F000E16
:10335000666F000E676F4EEC1DF04B0E000160258E
:1033600000016D6F000E0001612100016E6F000E03
:103370000001622100016F6F000E00016321000156
:10338000706F050E00016D250001736F000E0001C6
:103390006E210001746F73C01BF074C01CF0000E2E
:1033A0001E6E0A0E1D6E7AEC24F01B500001735F36
:1033B0001C500001745B73C01BF074C01CF0000E45
:1033C0001E6E640E1D6E05EC23F01BC01CF01B6A04
:1033D0001BC071F01CC072F073C01BF074C01CF0F5
:1033E000000E1E6E640E1D6E7AEC24F01B50000160
:1033F00071131C500001721371C027F072C028F0C5
:1034000012001BC060F21CC061F29A0EF66E770EBD
:10341000F76E0800F5CF1DF01D501B5C000E1C5808
:10342000D8B002D0010E3DD0920EF66E770EF76E38
:103430000800F5CF1DF01D501B5C000E1C58D8B0C5
:1034400002D0020E2ED08A0EF66E770EF76E0800AE
:10345000F5CF1DF01D501B5C000E1C58D8B002D0DB
:10346000030E1FD05A0EF66E770EF76E0800F5CFDA
:103470001DF01D501B5C000E1C58D8B002D0040E6D
:1034800010D04E0EF66E770EF76E0800F5CF1DF0D9
:103490001D501B5C000E1C58D8B002D0050E01D088
:1034A000060E346E890EF66E770EF76E0800F55034
:1034B0001D6E1E6A1B501D5C1C501E58D8B003D0D8
:1034C000010E336E12008D0EF66E770EF76E080049
:1034D000F5CF1DF01D501B5C000E1C58D8B012001B
:1034E000000E336E12003F50D8B421D03D0E3F6025
:1034F00001D03F2A3C0E3F18D8A419D00001FF513B
:10350000F00B200AD8A413D0330E0001FF6F7DEC1E
:1035100029F02A6E2A04D8A40AD01E0E0001756F65
:103520007A0E0001766FBFEC0AF096EC27F03A5065
:10353000D8A43A063550D8B403D03528D8A4352AB3
:103540002D502E10D8B412002D06D8A02E062D50C6
:103550002E10D8A418D07F0E0001756F790E0001CF
:10356000766FBFEC0AF0EC0E0001756F7E0E000165
:10357000766FBFEC0AF0000E1C6E320E1B6E41EC33
:1035800026F00AEC2BF0FBEC2AF00009D8A412007C
:103590002DC01BF02EC01CF0000E1E6E0A0E1D6EFC
:1035A0007AEC24F01B501C10D8A412003C0E000131
:1035B000756F7A0E0001766F2DC077F02EC078F00F
:1035C000BFEC0AF01200000E00018E6F60C090F098
:1035D00061C091F062C08FF000016351000190253D
:1035E0001D6E00016451000191211E6E040E1E5CCF
:1035F000D8A002D0020E12D000018F5100019025F8
:103600001D6E000E000191211E6E000165511D5CB2
:10361000000166511E58D8A004D0030E00018E6F21
:1036200038D0000E00018D6F000E8C6F26D0040E76
:1036300000018C251D6E000E00018D211E6E8E0E68
:103640001D24D96E000E1E20DA6E000163510001A8
:1036500090251F6E0001645100019121206E000130
:103660008C511F241B6E00018D5120201C6E44ECD8
:1036700029F0DF6E00018C4B8D2B00018F511D6EE8
:103680001E6A1D5000018C5D1E5000018D59D8A08E
:10369000CED720EE8EF000EE60F02B0EDBCFEBFFEE
:1036A000E806FCE212000101AD6F22EE00F011EE1F
:1036B0007BF0310EDBCFE3FFE806FCE2AA0E01014E
:1036C0007B6F880E01017C6FE7C17DF10101E72B63
:1036D0007F0E0001E96F010E0001EA6FEEC0EBF012
:1036E0000101AD51D3EC07F001017E6F01017E5164
:1036F000040F0101AF6F7B0E1B6E010E1C6E0101EA
:10370000AF512AEC27F00001EF6F0101AF51010D1D
:103710007B0EF324D96E010EF420DA6EEFC0DFFFCA
:103720000101AF2B000E0101AE6F25D00101AF07E3
:103730000101AE510101D8B410D00101AE51010D0B
:103740007B0EF324D96E010EF420DA6EAA0EDE1879
:10375000D8A403D0AA0E12EC24F00101AE51010D41
:103760007B0EF324D96E010EF420DA6EDF5012ECDA
:1037700024F00101AE2B0101AF510101D8B41200B8
:10378000D5D7C00E20140001606FFF0E2114000178
:10379000616F000E22140001626F000E23140001FD
:1037A000636F000EF2BE010E0001646F00016051F4
:1037B00020180DE100016151211809E10001625159
:1037C000221805E1000163512318D8B402D0FF0E7E
:1037D000120020C01BF021C01CF022C01DF023C02D
:1037E0001EF0ADEC26F022C0F8FF21C0F7FF20C08C
:1037F000F6FF000E0001656F3F0E0001656501D008
:1038000016D000016551010DF3502424D96EF450F7
:103810002520DA6EDF50F56E3F0E00016519D8A441
:1038200002D00C0001D00D000001652BE5D7A68E5B
:10383000A69CA684F29E550EA76EAA0EA76EA6821F
:10384000A694000164B102D0F29E01D0F28E000E67
:1038500012007DEC29F00001E76F3E50D8B40DD086
:103860000A0E3E6002D03E2A08D0100E0001FF1959
:10387000D8A403D0120E0001FF6F3D50D8B429D058
:10388000040E3D6001D03D2A030E3D18D8A421D07E
:10389000FFC02AF0F00E2A161F0E2A641AD000016B
:1038A000E705D8A40BD0500E0001756F7C0E000107
:1038B000766FBFEC0AF0AAEC27F008D0EE0E0001FC
:1038C000756F7B0E0001766FBFEC0AF0330E0001BE
:1038D000FF6F43504410D8B403D04306D8A0440629
:1038E0000101F5510101F611D8B404D00101F50729
:1038F000D8A0F6070101F3510101F411D8B404D0A6
:103900000101F307D8A0F4070101C751D8B4120090
:103910000101C7071200000E01012F6F000E2E6F6C
:1039200001012F5146E1140E01012E5DD8B041D0A6
:103930002EC11BF02FC11CF0000E1E6E090E1D6E55
:1039400032EC28F0010E1B2401012C6F000E1C200C
:1039500001012D6F2CC1BAF02DC1BBF0010E000189
:10396000BC6FBEEC21F021EE30F02B0EEBCFDBFF75
:10397000E806FCE2010130510101D8A416D0010192
:103980003451D8B412D0000E0101346F2CC1BBF0F9
:103990002DC1BCF0010E0001BD6F340E0001BE6FE1
:1039A000010E0001BF6F67EC20F001012E4B2F2BA1
:1039B000B7D7000E0101346F000E0001BC6F000E7E
:1039C000BB6F010E0001BD6F340E0001BE6F010E12
:1039D0000001BF6F67EC20F01200000E286ED4C209
:1039E00092F0030E00019217D8A40DD0D4C21BF0A0
:1039F0001C6A000E1E6E640E1D6E86EC21F01B50BC
:103A00001C10D8A40DD0D4C21BF01C6A010E1E6E6F
:103A1000900E1D6E86EC21F01B501C10D8A402D015
:103A2000010E286E0201D351D8A40BD0010E020161
:103A3000D36FEF0E0001756F7D0E0001766FBFEC46
:103A40000AF028500C0DFF0E0001926FFF0E0001CE
:103A5000936F0201D3510001946F956B0001925155
:103A6000000194270001935100019523D50E000118
:103A7000966F020E0001976F000194510001962786
:103A80000001955100019723F35000019625D96E4E
:103A9000F45000019721DA6EDF501200000E000191
:103AA000686F000E696F000E6A6F000E6B6F000189
:103AB0006451000165110001661100016711D8B45D
:103AC00042D0010E00016C6F08D00001D89064371D
:103AD00065376637673700016C2B000167AFF5D794
:103AE0000001D890683769376A376B370001645135
:103AF0000001605D000165510001615900016651DE
:103B0000000162590001675100016359D8A012D029
:103B1000000164510001605F000165510001615BBB
:103B2000000166510001625B000167510001635BA7
:103B3000000168810001D8906733663365336433D0
:103B400000016C2FCDD768C060F069C061F06AC019
:103B500062F06BC063F01200160EF66E510EF76E37
:103B6000000EF86E02EED5F010EE21F00900F5CF50
:103B7000EEFFE550E150FAE1B40EF66E550EF76E29
:103B8000000EF86E01EEF3F010EE06F00900F5CF2E
:103B9000EEFFE550E150FAE1340EF66E560EF76E88
:103BA000000EF86E0900F5CF43F00900F5CF44F0A0
:103BB00003EE00F0F20EEE6AE806FDE102EE00F020
:103BC000D50EEE6AE806FDE101EEBBF0380EEE6AB6
:103BD000E806FDE10001FF6B00EE2BF0160EEE6A29
:103BE000E806FDE145904592000EF86E00016BEF8E
:103BF0001FF01B6E000E1C6E000E1D6E000E1E6E62
:103C000009D0010E1D6E19D0010E1C6E16D0010ECA
:103C10001E6E13D01B50000AD8B40FD0010AD8B4BE
:103C2000F0D7030AD8B409D0010AD8B4EDD7070AEF
:103C3000D8B4EAD7010AD8B4EAD71C04D8A405D06E
:103C40003E50D8A407D0010E04D03E50D8B402D0C4
:103C5000000E3E6E1D04D8A405D03D50D8A407D058
:103C6000010E04D03D50D8B402D0000E3D6E1E04AB
:103C7000D8A406D03F50D8A41200010E3F6E120007
:103C80003F50D8B41200000E3F6E12000001946F36
:103C9000000194510001D8B436D000019405D8A495
:103CA00032D00101BB510101BC11D8B412D0300E89
:103CB0000001756F7F0E0001766FFF0E0101BB25BD
:103CC0000001776FFF0E0101BC210001786FBFEC8E
:103CD0000AF0BDC11BF0BEC11CF0000E1E6E0A0E24
:103CE0001D6E32EC28F01BC092F01CC093F0DC0E6D
:103CF0000001756F7D0E0001766F92C077F093C062
:103D000078F0BFEC0AF0B50E0001756F7D0E000172
:103D1000766F94C077F00001786BBFEC0AF01FEC6F
:103D200028F012000001E76F7DEC29F00001E86F38
:103D30002CD01D0E0001756F7B0E0001766FBFEC5D
:103D40000AF0000E1C6E0A0E1B6E41EC26F01200EB
:103D50000001FF51F00B200AD8B405D0F9EC27F090
:103D6000E806D8A412000001E805D8A40AD0000E85
:103D70000001756F7A0E0001766FBFEC0AF0BEECA1
:103D800027F0330E0001FF6F12000001E751000A17
:103D9000D8B4CFD7010AD8B41200030AD8B412009D
:103DA000010AD8B41200070AD8B41200010AD8B424
:103DB0001200030AD8A41200CBD7000171510001F0
:103DC00072110001731100017411D8B437D0010EC3
:103DD000276E07D00001D890713772377337743768
:103DE000272A000174AFF6D70001715100016D5D03
:103DF0000001725100016E590001735100016F59A9
:103E00000001745100017059D8A010D00001715107
:103E100000016D5F0001725100016E5B0001735182
:103E200000016F5B000174510001705B0001D890CC
:103E30007433733372337133272ED6D76DC06DF060
:103E40006EC06EF06FC06FF070C070F01200000EA8
:103E5000236E69EC2AF00009D8B4FBD7C6EC2AF02F
:103E60001BC021F01CC022F0215002016A27225001
:103E700002016B230201684B692B0201695105E1C4
:103E8000080E0201685DD8A021D0000E0201696F02
:103E9000000E686F6AC21FF06BC220F0D89020320B
:103EA0001F32D89020321F32D89020321F321DC0CE
:103EB000D9FF1EC0DAFF1FC0DEFF20C0DDFF000EED
:103EC00002016B6F000E6A6F010E236E000E06EC8E
:103ED00029F023501200F29E7AEC28F072EC29F0BF
:103EE0002AEC2AF0F288F28EF28C31EC2AF0F40EF1
:103EF0000001756F7F0E0001766FBFEC0AF0D18074
:103F000004007EEC23F0FBEC2AF00009D8A40ED0CC
:103F1000F9EC27F0E806D8A41BD0EFEC1FF0EDEC8D
:103F200025F013EC29F0F4EC29F012D0F9EC27F08D
:103F3000E806D8A403D07EEC13F00AD08C0E000162
:103F4000756F7D0E0001766FBFEC0AF0CAEC2AF0A7
:103F5000F6EC21F0FCEC29F0D3D7000E206E1EAE5B
:103F600006D01D6C1E1ED8B01E2A010E206E1CAE7F
:103F700006D01B6C1C1ED8B01C2A010E201A000E85
:103F8000226E000E216E1D501E10D8B41CD0010EE2
:103F90001F6E04D0D8901D361E361F2A1EAEFAD7CB
:103FA000D890213622361D501B5C1E501C58D8A0BC
:103FB00005D01D501B5E1E501C5A2180D8901E3209
:103FC0001D321F2EEDD72050D8B404D0216C221EF4
:103FD000D8B0222A21C01BF022C01CF0120039AA3E
:103FE00003D0399A0CEC28F039A80DD0399864C266
:103FF0005CF265C25DF2D1EC29F0E806D8A403D0EA
:10400000870E59EC22F0000E81B4010E3B6ED1EC0C
:1040100029F0E806D8A412003B500101F819D8B4E1
:1040200012003B50D8A409D04A0E0001756F7F0ED4
:104030000001766FBFEC0AF008D03D0E0001756FED
:104040007F0E0001766FBFEC0AF03BC0F8F1870EDF
:1040500059EC22F01200BBC060F0BCC061F0BDC0E2
:1040600062F0BEC063F0BFC064F0020E0001666F74
:10407000000E656F020E0001686F000E676F6EEC38
:1040800017F021EE00F02B0EEBCFDBFFE806FCE291
:10409000010100510101D8B410D06E0E0001756FFE
:1040A0007B0E0001766FBBC077F0BCC078F000C11A
:1040B00079F000017A6BBFEC0AF021EE00F000EE1F
:1040C000BBF02B0EDBCFEBFFE806FCE21200BBC01F
:1040D00060F0BCC061F0BDC062F0BEC063F0BFC0A4
:1040E00064F0010E0001666F000E656F000E0001A6
:1040F000686FC80E676F6EEC17F021EE00F02B0EA4
:10410000EBCFDBFFE806FCE2010100510101D8B46E
:1041100010D0E20E0001756F790E0001766FBBC002
:1041200077F0BCC078F000C179F000017A6BBFEC89
:104130000AF021EE00F000EEBBF02B0EDBCFEBFF20
:10414000E806FCE21200000E0001976F0ED078EC3A
:1041500025F00001966F00019651CCEC16F000019D
:10416000976F00019705D8B403D03850D8A4EFD783
:104170000101CEA11FD00101CE910101C251D8B4DD
:1041800019D00101C22B640E0101C26513D0000ECB
:104190000101C26F010E0001756F7E0E0001766F86
:1041A000E6C177F00001786BBFEC0AF00101E62B65
:1041B0006FEC2AF0000197511200A49081EC2AF0D4
:1041C0000009D8A430D041C009F042C00AF0091E4D
:1041D0000A1E094A0A2ADBEC28F0095001240B6E5A
:1041E0000A5002200C6E0BC001F00CC002F0000E51
:1041F000046E320E036E2EEC23F001C00BF002C0F1
:104200000CF00B50020166250201646F0C50020194
:1042100067210201656F000E0201676F000E666F75
:10422000010E0101E46FB4EC2AF012003450F9ECF5
:104230001DF034504018D8B412004050D8A403D018
:104240003450D8B425D04050345CD8A009D0F60EF4
:104250000001756F7F0E0001766FBFEC0AF008D089
:10426000F90E0001756F7F0E0001766FBFEC0AF04A
:10427000950E0001756F7F0E0001766F40C077F0DC
:104280000001786B34C079F000017A6BBFEC0AF062
:10429000345092EC1EF034C040F01200BAC060F00E
:1042A000BBC061F0BCC062F0020E0001646F000E82
:1042B000636F020E0001666F000E656FE3EC1AF08B
:1042C00021EE00F02B0EEBCFDBFFE806FCE2010154
:1042D00000510101D8B410D0D50E0001756F7B0ECE
:1042E0000001766FBAC077F0BBC078F000C179F0FA
:1042F00000017A6BBFEC0AF021EE00F000EEBAF09C
:104300002B0EDBCFEBFFE806FCE21200000E206E66
:104310001CAE06D01B6C1C1ED8B01C2A010E206ED1
:104320001EAE04D01D6C1E1ED8B01E2A1D501E10BD
:10433000D8B418D0010E1F6E04D0D8901D361E368A
:104340001F2A1EAEFAD71D501B5C1E501C58D8A049
:1043500004D01D501B5E1E501C5AD8901E321D32B8
:104360001F2EF1D72050D8B404D01B6C1C1ED8B01F
:104370001C2A1BC01BF01CC01CF01200BAC060F04D
:10438000BBC061F0BCC062F0010E0001646F000EA2
:10439000636F000E0001666FC80E656FE3EC1AF0E4
:1043A00021EE00F02B0EEBCFDBFFE806FCE2010173
:1043B00000510101D8B410D05A0E0001756F7A0E69
:1043C0000001766FBAC077F0BBC078F000C179F019
:1043D00000017A6BBFEC0AF021EE00F000EEBAF0BB
:1043E0002B0EDBCFEBFFE806FCE212000101C65109
:1043F000D8B417D0000E0101C66F08EC2BF00101F4
:10440000EB2B090E0101EB6524D0000E0101EB6FCF
:104410000101EA2BE9EC2AF0EFEC2AF0F2EC2AF0A9
:1044200018D0090E0101EA6507D0000E0101EA6FFC
:104430000101E92B398A0DD0090E0101E96509D086
:10444000000E0101E96F3988398006EC2BF0ECECA5
:104450002AF0ECEC29F01200010E1D6E1BC0D9FFF2
:104460001CC0DAFFDF501E6E2F0E1E6406D03A0EFF
:104470001E6003D00F0E1E1614D0400E1E6404D012
:10448000470E1E6001D006D0600E1E6408D0670E75
:104490001E6005D00F0E1E16090E1E2602D0000E3D
:1044A0001D6E1BC0D9FF1CC0DAFF1EC0DFFF1D50F0
:1044B0001200286E2F28296E090E296402D0000EE2
:1044C000296E29503018D8A413D06A0E0001756FD8
:1044D0007E0E0001766F28C077F00001786BBFEC8C
:1044E0000AF0000E1C6E0A0E1B6E41EC26F0120044
:1044F0002F50010D520EF324D96E020EF420DA6E05
:1045000028C0DFFF29C02FF012006B0E0001756F6D
:104510007B0E0001766FBFEC0AF0610E0001756F33
:104520007D0E0001766FE30E0001776F7F0E0001B4
:10453000786FBFEC0AF0530E0001756F7B0E00011F
:10454000766F560E0001776F7F0E0001786FD60EE2
:104550000001796F7F0E00017A6FBFEC0AF0120044
:10456000000E236E000E246E000E256E000E266EC9
:104570001BA008D01F502326205024222150252282
:1045800022502622D8901F36203621362236D89047
:104590001E321D321C321B321B501C101D101E10EF
:1045A000D8A4E6D723C01BF024C01CF025C01DF002
:1045B00026C01EF01200130E376413D0A10E0001A6
:1045C000756F7D0E0001766F37C077F00001786B54
:1045D00036C079F000017A6BBFEC0AF001EC2BF0E9
:1045E0001200372A36503718D8A41200DD0E000109
:1045F000756F7E0E0001766F36C077F00001786B24
:10460000BFEC0AF001EC2BF01200000E216E000E40
:10461000206E1D501E10D8B41CD0010E1F6E04D089
:10462000D8901D361E361F2A1EAEFAD7D8902036D7
:1046300021361D501B5C1E501C58D8A005D01D50A3
:104640001B5E1E501C5A2080D8901E321D321F2E19
:10465000EDD720C01BF021C01CF01200000E066E2A
:10466000000E056E03500410D8B41CD0010E076E66
:1046700004D0D89003360436072A04AEFAD7D8906F
:10468000053606360350015C04500258D8A005D008
:104690000350015E0450025A0580D8900432033260
:1046A000072EEDD705C001F006C002F01200000E83
:1046B000896EC10E926E010E0F01386F000E8A6E68
:1046C000270E936E000E0F01396F030E616E000E00
:1046D0008B6EC00E946E000E0F013A6F000E8C6E42
:1046E000C00E956E000E0F013B6F000E8D6E000E1A
:1046F000966E000E0F013C6FF19E12003CA012D08E
:10470000F40E1D6E000E1E6E27EC1FF00001F36FFD
:104710000001F305D8A406D0F4C01BF0F5C01CF0CE
:1047200001EC1AF03CA204D03C9229EC1CF005D01C
:104730003CA403D03C9473EC1AF016EC21F058EC36
:1047400024F0F2EC11F01200000E036EB9EC2AF026
:1047500001500210D8A41CD0240E0001FF19D8A4C7
:104760000BD00101F5510101F611D8A411D00101BE
:10477000F3510101F41108D0320E0001FF19D8B431
:1047800005D0330E0001FF19D8A402D0010E036E2C
:1047900003501200000E296E25EC26F0286E2850DA
:1047A000D8B411D0E50E0001756F770E0001766F59
:1047B000BFEC0AF0000E1C6E320E1B6E41EC26F0B0
:1047C00000EF00F00AD0680E0001756F7C0E00014A
:1047D000766FBFEC0AF0010E296E29501200D1EC61
:1047E00029F00009D8B4120018D03050010D520E33
:1047F000F324D96E020EF420DA6EDF500001F06F60
:10480000302A090E306402D0000E306E000E000116
:10481000EE6F0001F05153EC1BF030502F18D8B45C
:104820001200E3D71B6E0201F651D8B4FCD79DB835
:1048300003D01BC0ADFF17D09D980101D251010DCF
:10484000320EF324D96E020EF420DA6E1BC0DFFFA5
:104850000101D22B0F0E0101D26503D0000E010120
:10486000D26F0201F6079D8812001B6E0201F751FC
:10487000D8B4FCD7A3B803D01BC073FF17D0A3983C
:104880000101D751010D420EF324D96E020EF4201E
:10489000DA6E1BC0DFFF0101D72B0F0E0101D765B8
:1048A00003D0000E0101D76F0201F707A3881200A1
:1048B00033500101EC19D8B406D033C0ECF10A0E24
:1048C0000101C76F12000101C751D8A412003304BF
:1048D000D8A408D00101CA51D8A41200010E0101C8
:1048E000CA6F12000101CA05D8A41200000E01010E
:1048F000CA6F12001D501E10D8B418D0010E1F6EC2
:1049000004D0D8901D361E361F2A1EAEFAD71D5071
:104910001B5C1E501C58D8A004D01D501B5E1E509E
:104920001C5AD8901E321D321F2EF1D71BC01BF00F
:104930001CC01CF01200000E206E000E216E0F0E27
:10494000216401D017D0000E21241B6E1C6A880E32
:104950001C221D6A000E1D221E6A000E1E22C8ECBB
:1049600029F01F6E1F28D8B403D0010E206E02D08C
:10497000212AE5D7205012001DC023F01EC024F0CC
:104980001BC021F01CC022F00ED023C0D9FF24C0D0
:10499000DAFF21C0E1FF22C0E2FFDFCFE7FF234AB9
:1049A000242A214A222A1F06D8A020061F28EDE12A
:1049B0002028D8B41200E9D7A39AA398480E706EA5
:1049C000900E716E260E726E220E756E000E766E51
:1049D000000E0101D76F000E0101D86F100E020109
:1049E000F76F000E0101D56F000E0101D66F000EAA
:1049F0000101D46FA38A1200A39AA398480E706E87
:104A0000900E716E260E726E220E756E000E766E10
:104A1000000E0101D76F000E0101D86F100E0201C8
:104A2000F76F000E0101D56F000E0101D66F000E69
:104A30000101D46FA38A12009D9A9D98480EB86E0A
:104A4000900EAB6E260EAC6E220EAF6E000EB06EE8
:104A5000000E0101D26F000E0101D36F100E020192
:104A6000F66F000E0101D06F000E0101D16F000E34
:104A7000386E9D8A12009D9A9D98480EB86E900ED1
:104A8000AB6E260EAC6E220EAF6E000EB06E000E38
:104A90000101D26F000E0101D36F100E0201F66FFB
:104AA000000E0101D06F000E0101D16F000E386EB3
:104AB0009D8A12000201CF2B3B0E0201CF6512002E
:104AC000000E0201CF6F0201D02B3B0E0201D06518
:104AD0001200000E0201D06F0201D12B170E02014D
:104AE000D1651200000E0201D16FE1EC26F0120038
:104AF000000E1B6E3850D8B4FDD79D9A0101D151DC
:104B0000010D000EF324D96E030EF420DA6EDF508F
:104B10001B6E0101D12B3F0E0101D16503D0000EA8
:104B20000101D16F38069D8A1B501200000EF2BEA3
:104B3000010E1E6E1C50030BAA6E1BC0A9FF1DC0E8
:104B4000A8FFA69EA69CA684F29E550EA76EAA0E4E
:104B5000A76EA682A6B2FED7A6941EB002D0F29E81
:104B600001D0F28E1200100E0201F76117D0010180
:104B7000D851010D420EF324D96E020EF420DA6EE4
:104B8000DF50736E0101D82B0F0E0101D86503D0E1
:104B9000000E0101D86F0201F72B1200A39812003A
:104BA000100E0201F66117D00101D351010D320E32
:104BB000F324D96E020EF420DA6EDF50AD6E0101DF
:104BC000D32B0F0E0101D36503D0000E0101D36F6B
:104BD0000201F62B12009D98120039A202D0010E9C
:104BE00001D0000E2A6E39A402D0010E01D0000EB1
:104BF0002A1AD8B4120039A202D0398401D03994CB
:104C000039A202D08B8201D08B92830E59EC22F014
:104C10001200000E1B6E0001FF51F00B200AD8B4E9
:104C200009D0300E0001FF19D8A406D02D502E1047
:104C3000D8B402D0010E1B6E1B04D8A404D0000E01
:104C40002E6EB40E2D6E1B501200000E1F6E000E45
:104C50001C6E000E1B6E44EC29F01D6E000E1C6EC7
:104C6000010E1B6E44EC29F01E6E310E1D18D8A4E7
:104C700006D0370E1E18D8A402D0010E1F6E1F508A
:104C80001200000E1E6E000E1D6E10D0000E206E63
:104C9000000E1F6E6B0E1F5C010E2058D8B004D0A2
:104CA00000F01F4A202AF6D71D4A1E2A1B501D5C01
:104CB0001C501E58D8B01200E9D72A6E2A502CEC8E
:104CC00029F0FBEC2AF00009D8A4120039B606D06E
:104CD00039862AC0EDF1BEEC2AF012002A500101FB
:104CE000ED19D8B412002AC0EDF1BEEC2AF0120082
:104CF00071A202D0719871880101D551010D400E49
:104D0000F324D96E030EF420DA6E74CFDFFF0101B5
:104D1000D52B3F0E0101D56503D0000E0101D56FE3
:104D20000101D42B1200000E206E000E1F6E000E2B
:104D3000216E0AD01F501B24D96E20501C20DA6E21
:104D4000DF5021261F4A202A1D501F5C1E5020586C
:104D5000D8A0F0D7216C21501200000EF2BE010E37
:104D60001F6E1DC0F8FF1CC0F7FF1BC0F6FFA68E0C
:104D7000A69CA684A688F29E550EA76EAA0EA76EC4
:104D8000A6821FB002D0F29E01D0F28E1200ABA21A
:104D900002D0AB98AB880101D051010D000EF32475
:104DA000D96E030EF420DA6EAECFDFFF0101D02BF7
:104DB0003F0E0101D06503D0000E0101D06F382AEB
:104DC0001200EDEC1CF0296E0201D22B0201D2512F
:104DD000295CD8B01200010E0201D26F0201D32B60
:104DE0000B0E0201D3651200010E0201D36F020106
:104DF000D42B1200340ECD6EC00ECC6E3C0ECF6E96
:104E0000B00ECE6ECECF41F0CFCF42F09E909D80BF
:104E1000A490A38012EC2BF0000E0201676F000E2D
:104E2000666F1200340ECD6EC00ECC6E3C0ECF6E8F
:104E3000B00ECE6ECECF41F0CFCF42F09E909D808F
:104E4000A490A38016EC2BF0000E0201676F000EF9
:104E5000666F12001D6E000E1E6E000E1F6E0BD0D0
:104E60001F50010DF3501B24D96EF4501C20DA6E34
:104E7000DF501E261F2A1D501F5CD8A0F1D71E50E0
:104E800012001BC021F01CC022F008D021C0D9FFA5
:104E900022C0DAFF1DC0DFFF214A222A1F06D8A048
:104EA00020061F28F3E12028D8B41200EFD73AC01B
:104EB0001FF03A50D8B40BD0050E1B6E3A506CEC74
:104EC00027F03A6E3A50D8A402D0050E3A6E010E81
:104ED0000101D96F1F5012001C6E080E1D6E000ECE
:104EE0001E6ED8901C341E341E6ED8901C361B507B
:104EF0001E5CD8A002D01B501E5E1D2EF2D71E5085
:104F00001200FBEC2AF0E806D8A40DD04B0E0001ED
:104F1000756F7D0E0001766FBFEC0AF0030E46EC54
:104F20001EF00CEC2AF054EC2AF01200010E89EC71
:104F300018F0296E2950D8B41200AD0E0001756F1B
:104F40007E0E0001766F29C077F00001786BBFEC10
:104F50000AF01200030E89EC18F0296E2950D8B41B
:104F60001200BD0E0001756F7E0E0001766F29C024
:104F700077F00001786BBFEC0AF01200020E89ECAA
:104F800018F0296E2950D8B412007B0E0001756FFD
:104F90007E0E0001766F29C077F00001786BBFECC0
:104FA0000AF01200F2940101FA51D76EF9C1D6FF4E
:104FB000010E0101C66F0201625102016311D8B4F2
:104FC000120002016207D8A063071200000E02015E
:104FD000CF6F000E0201D06F000E0201D16F000EE4
:104FE0000201D26F000E0201D36F000E0201D46FD6
:104FF0001200240E0001FF19D8B40AD0300E0001AF
:10500000FF19D8B405D0310E0001FF19D8A402D081
:10501000010E1200000E12000101E451D8B412007A
:105020000101E42B0A0E0101E4651200000E0101EA
:10503000E46F000E0201656F000E646F1200010143
:10504000C051D8B41200000E0101C06FA20E0001C1
:10505000756F7B0E0001766FBFEC0AF0850E59EC80
:1050600022F012001B501D02F3CF1FF0F4CF20F0EE
:105070001B501E02F35020261C501D02F350202608
:105080001FC01BF020C01CF012009E904250CF6E3B
:1050900041C0CEFF81EC2AF00009D8B41200020111
:1050A000E80E6627030E6723000E0101E46F12006D
:1050B000000E1C6E000E1B6E310E1D6E96EC25F060
:1050C000000E1C6E010E1B6E370E1D6E96EC25F049
:1050D0001200000E1C6E000E1B6E000E1D6E96EC74
:1050E00025F0000E1C6E010E1B6E000E1D6E96EC60
:1050F00025F0120062EC2AF057EC23F093EC29F033
:10510000ACEC28F09EEC29F01CEC25F0DCEC24F053
:10511000FAEC26F012001F1C1F1E1F1E1F1F1E1F51
:105120001E1F1F1D1F1E1F1E1F1F1E1F1E1F303074
:1051300030303030303000008B94000E1C6E010E89
:105140001B6E41EC26F08C94000E1C6E020E1B6E42
:1051500041EC26F08B981200920ED56EFE0ED76EA3
:105160000C0ED66EFE0E0101FA6F0C0EF96FF29462
:10517000F28A14EC2BF01200A1AE03D018EC2BF045
:105180001200A4EC23F0046E0404D8A4120050EC26
:1051900029F0D6EC2AF012001D6E000E1C6E3A0E9D
:1051A0001D6005D02F0E1D6402D0010E1C6E1CC0A8
:1051B0001BF01B301200CECF08F0CFCF07F0075006
:1051C000036E0850056E03C006F005C001F006C06E
:1051D00002F012000F013F690F013E690F013D69A6
:1051E00072EC29F067EC29F0D190D39E03001200F5
:1051F0008B88000E1C6E040E1B6E41EC26F08C8416
:105200008B848B9239943992399612001C6E1CC093
:105210001BF01B461B46C2501B18830B1B18C26E8B
:10522000C280C2821200EFEC23F0A3EC20F0010157
:10523000B06F0101B005D8A4120073EC04F01200A5
:105240005CEC29F0CBC13FFFCCC13EFFCDC13DFF9F
:10525000BFEC29F0D18012001B6E1B04D8A404D02F
:10526000010E0101C96F1200000E0101C96F120089
:105270001BC0D9FF1CC0DAFF12EECFF0050EDBCF4A
:10528000E3FFE806FCE212001C50030BAA6E1BC0F1
:10529000A9FFA69CA69EA68000F000F0A8501200D0
:1052A000B4EC29F0CBC13FFFCCC13EFFCDC13DFFE7
:1052B000E3EC29F0D1801200F8C289FFF9C28AFF1D
:1052C000FAC28BFFFBC28CFFFCC28DFF1200000EE6
:1052D000896E000E8A6E000E8B6E000E8C6E000EB4
:1052E0008D6E120089CFF8F28ACFF9F28BCFFAF2E5
:1052F0008CCFFBF28DCFFCF21200000E81B0010EBC
:105300001B6E1B50D8A402D0010E1200000E12001A
:10531000D1EC29F0E806D8A412003650D8B4120017
:10532000CEEC2AF01200D09EF194F19CF19A9F9A53
:105330009F98A59AA598A5909F901200010EC26E05
:10534000000EC16E2E0EC06E000EC36E000EC46E37
:105350001200010EC26E000EC16E2E0EC06E000E47
:10536000C36E000EC46E1200F8C289FFF9C28AFF34
:10537000FAC28BFFFBC28CFFFCC28DFF12009EECB9
:1053800029F01CEC25F0DCEC24F0FAEC26F01200FD
:105390001DC0F8FF1CC0F7FF1BC0F6FF0800F5504A
:1053A0001200000E1B6E3550D8A402D0010E1B6EE9
:1053B0001B5012000001F16FF0C0EEF00001F1513E
:1053C00053EC1BF01200A9EC29F03BEC25F0FCECAF
:1053D00024F012EC27F012000101C8A11200010113
:1053E000C8915AEC25F012000101CFA11200010171
:1053F000CF9188EC29F0120039A0120039901BECF3
:105400002BF01CEC2BF012001B6E1B04D8A402D056
:1054100039821200399212000101C151D8B4120030
:10542000060E0101C16F12000101F751D8B412003C
:10543000000E0101F76F120087EC2AF0DDEC2AF074
:10544000E0EC2AF01200000E0001F06F860EDAEC9C
:1054500029F012003C803CA01200000E06EC29F05E
:1054600012003FCFCBF13ECFCCF13DCFCDF11200BA
:10547000000E0001F06F910EDAEC29F01200000E20
:105480000001F06F920EDAEC29F01200000E00011C
:10549000F06F850EDAEC29F01200000E0001F06FBB
:1054A000900EDAEC29F01200000E0001F06F850E6C
:1054B000DAEC29F012000EEC19F0366E000E376EA1
:1054C00036501200300ED36E040ED26E000E9B6E5C
:1054D0001200C2B202D0010E1200000E1200000E25
:1054E000326E000E0101C56F1200D2EC2AF0000EE0
:1054F0000101C16F12003550D8B41200000E356E94
:105500001200CCA402D0010E1200000E1200E3EC37
:105510002AF06FEC2AF01200000E306E30C02FF02F
:105520001200CF0E1B6E020E1C6E1200000E2E6EAD
:10553000000E2D6E12007BEC2AF014EC2AF0120003
:105540005CC21BF05DC21CF012002DC01BF02EC00F
:105550001CF012001C6E1C5035EC24F0120060C2CE
:105560001BF061C21CF012004250CF6E41C0CEFF52
:1055700012002DC001F02EC002F01200820E59EC74
:1055800022F01200000E2CEC29F01200C4CF1BF008
:105590001C6A1200000E46EC1EF012008B0E59EC35
:1055A00022F01200010E0101C06F1200200E000156
:1055B000FF6F12000A000A0001FFC2EC2AF012007D
:1055C000000E366E12008CEC2AF01200010E356EC1
:1055D00012000101CE8112000101C88112000101F7
:1055E000E58112000101CF8112001CEC25F01200B0
:1055F0000101F75112000101C05112000101C9510E
:105600001200000E366E12008B9412003C841200C1
:105610003C821200FF001200375012003650120078
:105620003B501200CD801200D58E1200CD801200AA
:10563000FF001200FE0112001200FF00FF00FF0039
:10774000FF00FF00FF00FF00FF00FF0000E3E3E396
:10775000E3CFCFCFCFBCBCBCBCA8A8A8A89F9F9F9D
:107760009F9A9A9A9A959595958B8B8B8B8282820C
:1077700082787878786E6E6E6E646464645B5B5B4E
:107780005B56565656515151514C4C4C4C474747FD
:1077900047434343433D3D3D3D38383838010000C1
:1077A000000A00000064000000E803000010270049
:1077B00000A086010040420F008096980000E1F58D
:1077C0000500CA9A3B010000001000000000010003
:1077D0000000100000000001000000100000000088
:1077E000010000001053746172742073656C662D83
:1077F00070726F6772616D6D696E672E204A756D6C
:107800007020626F6F746C6F61646572210A0A0088
:107810005761726E696E672120466C6173682077CC
:1078200072697465206164647265737320282564CD
:1078300029203A203078256C780A0052783A204383
:10784000505520426F6F74206572726F722E204304
:10785000505520776F756C64207265736574210ACA
:1078600000436F6D706C6574656420736176696E3A
:1078700067207061636B65747320666F722075702A
:10788000646174652E0A0052783A20557064617400
:1078900065207061636B6574202D204E756D3A20F4
:1078A00025642C204C656E3A2025640052783A20DD
:1078B0004572726F722E20446F6E277420776F723C
:1078C0006B20486F6C64204F4E20666C61670A0025
:1078D00050726576696F7573207361766564206692
:1078E000696C657320776572652064656C65746585
:1078F000642E0A0052783A20486F6C64204F4E2064
:1079000074686520532D555020666F72206D696E26
:1079100075746573210A0041646472657373206530
:1079200072726F722E2043757272656E74204C6590
:107930006E203D20256C64200A00436F6E666967E7
:1079400075726174696F6E20626974206572726FFE
:10795000722E204C656E203D2025640A0052783A34
:107960002052656C6561736520686F6C64696E6731
:10797000206F6E2074686520532D55502E0A0054D8
:10798000696D656F7574204D45552075706461741F
:10799000652070726F74656374696F6E2121210AAE
:1079A0000041646472657373203078383030302061
:1079B0006F7665722E2041646472203D20256C78BC
:1079C000200A004572726F722E205772697465200A
:1079D0006C656E677468206F766572666C6F772170
:1079E0000A004545503A20307825782052656320BA
:1079F0007772697465206572726F722025640A005F
:107A0000422B204572726F72285665727920486940
:107A1000676829202D20535550204F4E0A00422BD5
:107A2000204572726F72284869676820316D696EEF
:107A300029202D20535550204F4E0A005570646167
:107A40007465203A2052656D61696E20256473204B
:107A5000746F2072657365740A004545503A203092
:107A600078257820526563207265616420657272A2
:107A70006F722025640A0052783A20537461727440
:107A8000204750532070726F6772616D6D696E6729
:107A9000210A0052656320696E6465782065727200
:107AA0006F722025642C2025642C2025640A005345
:107AB000756D206572726F722E2052783A2025649F
:107AC0002C2043616C3A2025640A007265616420B1
:107AD0003D20307825303278096F7269203D2030A2
:107AE00078253032780A0052783A2053746F70202B
:107AF0004750532070726F6772616D6D696E6721B8
:107B00000A0052783A2043505520456E7465722021
:107B1000626F6F746C6F61646572210A00506F77D9
:107B20006572207761736E277420636865636B6587
:107B300064207965742E0A0042696E61727920684A
:107B4000656164657220697320696E76616C696431
:107B5000210A00092D20436F6D70696C6564206FE8
:107B60006E202573206279202573200A0A0045457E
:107B7000503A2030782578205772697465206572F4
:107B8000726F722025640A00462D77726974652031
:107B90006E657720626C6F636B3A3078256C782C59
:107BA00020000A4368616E676520746F206E6F72F3
:107BB0006D616C206D6F64652E2E0A004661696CE4
:107BC00065642073656C662D70726F67616D6D6999
:107BD0006E672E0A004545503A20307825782052AD
:107BE000656164206572726F722025640A00422B01
:107BF0002062656C6F7720362E35562028535550FD
:107C0000204F4646290A00537461727420666972D7
:107C10006D7761726520757064617465210A0A0070
:107C200052783A2043616E63656C204D4355207550
:107C30007064617465210A0052783A2044656C656D
:107C4000746520616C6C207265636F7264730A00E6
:107C5000422B204572726F72284C4F5729202D20DD
:107C6000535550204F4E0A00557064617465207062
:107C700061636B6574206973206E6F6E652E0A00F8
:107C800052783A205374617274204D4355207570B8
:107C900064617465210A0052783A204572726F72ED
:107CA00020636D64203A3078253032780A005265BE
:107CB00063206974656D2069732077726F6E673A0F
:107CC0002025640A00506F7765722070726F632000
:107CD0006572726F72203A2025640A004350552065
:107CE0006973206E6F7420616C6976652E2025643F
:107CF000730A0052783A204D4555207265736574B9
:107D0000206E6F6E6521210A0052783A205374610B
:107D10007274204D4555207265736574210A0045C3
:107D200072726F7220547820636F6D6D616E642083
:107D30003A25640A0052783A20496E76616C69648B
:107D4000206770732074696D650A005570646174F2
:107D50006520656E7472792063616E63656C210ABB
:107D6000004D435520766572206F66204D455520A5
:107D700069732025730A005061636B657473206317
:107D80006F756E74206973204F4B0A0055706461E3
:107D9000746520656E747279206661696C65640A29
:107DA00000526563207478206572722E2025642C41
:107DB0002025640A00557064617465204661696C11
:107DC000656420282564290A005278204368656389
:107DD0006B73756D206572726F720A002D20746965
:107DE0006D656F757421202D2025646D730A0073F5
:107DF000797374696D652E6D6F6E20697320300A1A
:107E00000055415254205278206572726F722025BD
:107E1000640A0052783A204770732074696D6520B7
:107E20006572720A0052656320636E742065727217
:107E30006F722025640A00303132333435363738DA
:107E4000396162636465660052783A204350552078
:107E5000416C69766564210A0052783A2052657156
:107E600020726563206572720A00434D44204C6F96
:107E700073743A3078253032780A00526563206591
:107E800072722E205648282564290A006E657720D4
:107E9000616464723A3078256C78200A0052785018
:107EA00061636B6574206572726F720A005265635C
:107EB000206572722E2048282564290A00526563C5
:107EC000206572722E204C282564290A00526561B3
:107ED0006420726563206572726F720A0052656376
:107EE000207478206F6B2E2025640A00466F726321
:107EF0006520726573657421210A00435055207214
:107F0000652D636865636B0A00535550204F4E2002
:107F10007369672E0A004D32433A20532D3E4F4677
:107F2000460A00535550204F4646207369670A00A1
:107F3000527820636F756E74202564200052455678
:107F4000204F6666202848290A00524556204F6E69
:107F500020284C290A004D61722031302032303106
:107F60003700426F6F7420646F776E0A000A2D2D00
:107F70003E5265626F6F7400426F6F74207570219E
:107F80000A00436865636B73756D0A004279652E5C
:107F90002025640A002025642D3E25640A00422D18
:107FA0003E646F776E0A000A494E542D53555000B7
:107FB00026307825303278200041636B2025640A12
:107FC00000286E756C6C29004D32435F423A003ACE
:107FD0002025646D73006A776B616E6700782025D9
:107FE00064200051433130410041562B0A00415674
:107FF0002D0A002E2E00505E005076005C0000001E
:020000040030CA
:0E000000FF730332FFA480FF0F800FA00F409C
:00000001FF
